:020000040800F2
:1000000018050024AD020008073D00088F3B0008DA
:10001000053D00082D0A00083B48000800000000CC
:100020000000000000000000000000008D3F0008FC
:100030002F0A000800000000093D00088F3F00085B
:10004000C7020008C7020008C7020008C70200086C
:10005000C7020008C7020008C7020008C70200085C
:10006000C7020008C7020008C7020008C70200084C
:10007000C7020008C7020008C7020008C70200083C
:10008000C7020008C7020008C7020008C70200082C
:10009000C7020008C7020008C7020008C70200081C
:1000A000C7020008C7020008C7020008C70200080C
:1000B000C7020008C7020008C7020008C7020008FC
:1000C000C7020008C7020008C7020008C7020008EC
:1000D000C7020008C7020008C7020008C7020008DC
:1000E000C7020008C702000800000000C70200089D
:1000F000C7020008C7020008C7020008C7020008BC
:10010000C7020008C7020008C7020008C7020008AB
:10011000C7020008C7020008C7020008C70200089B
:10012000C7020008C7020008C7020008C70200088B
:10013000C7020008C7020008C7020008C70200087B
:1001400000000000000000000000000000000000AF
:10015000C7020008C7020008C7020008C70200085B
:10016000C7020008C7020008C7020008C70200084B
:10017000C7020008C7020008C7020008000000000C
:10018000C7020008C7020008C7020008C70200082B
:10019000C7020008C7020008C7020008C70200081B
:1001A000C7020008C7020008C7020008C70200080B
:1001B000C7020008C7020008C7020008C7020008FB
:1001C000C7020008C7020008C7020008C7020008EB
:1001D000C7020008C7020008C7020008C7020008DB
:1001E000C7020008C7020008C7020008C7020008CB
:1001F000C7020008C7020008C7020008C7020008BB
:10020000C7020008C7020008C7020008C7020008AA
:10021000C7020008C7020008C7020008C70200089A
:10022000C7020008C7020008C7020008000000005B
:10023000C7020008C702000800000000C70200084B
:10024000C7020008C7020008C7020008C70200086A
:10025000C7020008C7020008C7020008C70200085A
:10026000C7020008C7020008C7020008C70200084A
:10027000C7020008C7020008C7020008000000000B
:10028000C7020008C7020008C702000800000000FB
:1002900000000000C7020008DFF80CD000F048FAA8
:1002A00000480047295100081805002406488047E7
:1002B00006480047FEE7FEE7FEE7FEE7FEE7FEE74B
:1002C000FEE7FEE7FEE7FEE74D4000089902000862
:1002D0002DE9F05F0546002092469B46884606467B
:1002E000814640241BE0284641464746224600F00E
:1002F00057F853465A46C01A914110D31146184632
:10030000224600F03EF82D1A67EB01084F462246C0
:100310000120002100F035F817EB00094E41201EA6
:10032000A4F10104DFDC484631462A464346BDE8D5
:10033000F09FD2B201E000F8012B491EFBD27047BA
:100340000022F6E710B513460A4604461946FFF7A1
:10035000F0FF204610BD30B50B460146002020229C
:10036000012409E021FA02F59D4205D303FA02F5C2
:10037000491B04FA02F52844151EA2F10102F1DC22
:1003800030BD202A04DB203A00FA02F10020704739
:100390009140C2F1200320FA03F3194390407047C3
:1003A000202A04DB203A21FA02F00021704721FACA
:1003B00002F3D040C2F12002914008431946704731
:1003C0002DE9FE4F804681EA0300C00F0C460090E5
:1003D00021F0004123F00045B8EB0200A94105D20D
:1003E0004046214690461C460B46024623F00040FC
:1003F000104347D0270DC7F30A00C3F30A510290F8
:10040000401A019040286BDAC3F3130040F4801BBC
:100410000098924620B10023D2EB030A63EB0B0B4A
:1004200001985946C0F140025046FFF7AAFF064620
:100430000D4650465946019A00F08CF910EB080021
:100440006141002487EA115284EAE7731A4340D0DD
:10045000009A62B3019A012A4FEA075215DC001B89
:1004600061EB02014FF0004202EA0752CDE900427F
:10047000001C41F5801132462B4600F08CF903B088
:10048000BDE8F08F40462146F9E7001B61EB020111
:10049000001C41F5801300185B412018A2F50017DD
:1004A00047EB030140EAD570B6196D4111E06D08C4
:1004B0004FEA360645EAC0754FEA0752001B61EB6A
:1004C0000201001C41F5801149084FEA3000001973
:1004D000514132462B4603B0BDE8F04F00F04CB915
:1004E0000098012240000023D0EB020263EBE0738E
:1004F000009821464FEAE074B8EB000061EB04017C
:10050000E9E783F000435BE781F0004158E72DE91C
:10051000FE4F81EA030404F0004421F000410094FE
:100520004FF0000B23F0004350EA01045ED052EA82
:1005300003045BD0C3F30A54C1F30A552C44A4F25C
:10054000F3340194A0FB0254C1F3130141F4801170
:10055000C3F3130343F4801301FB024400FB034E77
:10056000840A970A44EA815447EA8357A4FB076840
:1005700002958D0A05FB07854FEA932C04FB0C546A
:100580002705029D4FEA065847EA1637B5EB0805DE
:100590006EEB070C870E920E47EA811742EA831230
:1005A000A7FB0201B6EB0B0164EB00042B0D43EA41
:1005B0000C335E1844EB1C50DA465146E7FB02014F
:1005C000C5F313044FEA0B3343EA14534FEA0432E2
:1005D000019C43EA0603A4F10C040294009CCDE9BB
:1005E00000B400F0D8F803B0BDE8F08F0020014659
:1005F000F9E72DE9F04D81EA030404F0004B21F006
:10060000004514464FF0000A23F0004150EA05026D
:1006100020D054EA01021DD0C5F30A570246C5F3A3
:100620001303C1F31300C1F30A5640F4801543F4D9
:100630008013A7EB0608101BD64608F2FD3873EBB3
:10064000050002D308F1010801E092185B41B8F1FE
:10065000000F03DA00200146BDE8F08D00204FF4C2
:100660008011064684460EE0171B73EB050705D381
:10067000121B63EB050306434CEA010C49084FEAE1
:10068000300092185B4150EA0107EDD152EA0300B5
:1006900012D082EA040083EA0501084305D0101B4A
:1006A000AB4106D20122002306E000224FF00043B6
:1006B00002E06FF0010253101AEB06004CEB0851F8
:1006C00010EB0A0041EB0B01BDE8F04D00F054B80F
:1006D000C1F30A52C1F3130140F2FF3341F4801118
:1006E0009A4202DA00200146704740F233439A42B0
:1006F000A2F2334202DC5242FFF752BEFFF741BE84
:1007000030B5041E71F1000404DB4FF00044404298
:1007100064EB0101141E73F1000405DB1C464FF06D
:100720000043524263EB0403994208BF904230BD3C
:10073000064C074D06E0E06840F0010394E807002E
:1007400098471034AC42F6D3FFF7AAFD5C5200087C
:100750007C520008202A06DBCB17203A41FA02F02F
:1007600043EAE07306E041FA02F3D040C2F120020E
:10077000914008431946704710B5141E73F10004E8
:1007800008DA401C41F1000192185B411A4301D183
:1007900020F0010010BD2DE9F04D92469B4611B1AD
:1007A000B1FA81F202E0B0FA80F220329046FFF70F
:1007B000E8FD04460F4640EA0A0041EA0B015346B1
:1007C0005A46084313D0114653EA010019D0C8F124
:1007D00040025046FFF7E4FD05460E465046594696
:1007E0004246FFF7CEFD084305D0012004E0204635
:1007F0003946BDE8F08D0020054346EAE0762C43FB
:1008000037430A986305E40AA0EB08000022FD0ABA
:1008100044EA47540A3002D500200146E9E70105C1
:1008200010196941DDE9084500196941BDE8F04D3D
:10083000A2E7000070B5054641492868884202D009
:10084000404A904205D1D1F8080310F4403F05D149
:1008500018E03D48006810F4403F13D002F088FBD8
:1008600004466868B0F5803F06D0B0F5003F03D07D
:10087000B0F5403F29D103E0000CB4FBF0F424E0D4
:10088000A40822E04FF4002001F06EFA04466868E4
:100890008103890B19D180140C2816D2DFE800F0EF
:1008A000150606060606060C0E1012146868800C63
:1008B0004000B4FBF0F408E0240906E0640904E019
:1008C000A40902E0E40900E0240A00F095FE41F2E8
:1008D000030188420ED81D48844205D928688168E2
:1008E00041F48071816070BD2868816821F4807155
:1008F000816070BD60081649884205D82868816803
:1009000021F44071816070BD1249884207D828687F
:10091000816821F4407141F48071816070BD0E499D
:10092000884207D82868816821F4407141F4007139
:10093000816070BD2868816841F44071816070BD3C
:10094000002002400021024008630258002D3101BE
:10095000105E5F0020BCBE0040787D0170B504468B
:100960002068816801F0010100294BD181686FF393
:100970009E1149B1606D40F010006065A06D40F0BF
:100980000100A065012070BD816821F03F0121F0C8
:10099000004141F00101816000F034FE05461F492D
:1009A00020681F4B884201D0984201D11D4A00E0C7
:1009B0001D4A926802F01F02984200D0014681420F
:1009C00000D0FAB9006810F0010F1BD120688168CF
:1009D00001F0010139B9816821F03F0121F00041A6
:1009E00041F00101816000F00DFE401B022804D996
:1009F0002068006810F0010F06D02068006810F031
:100A0000010FE3D0002070BD606D40F01000606504
:100A1000A06D40F00100A065012070BD00200240E3
:100A2000002102400023024000630258FEE77047A5
:100A300072B6FEE72DE9F00199B0002590F850203C
:100A4000012A0ED0012280F850200024159416941B
:100A50003F4E0268DFF8FCC0B24207D1CDF800C0BB
:100A600005E019B00220BDE8F00170470094009B3A
:100A7000A3B1009B9B68C3F380039768C7F380070B
:100A80003B4316D0416D41F020014165012580F8BE
:100A9000504019B02846BDE8F0017047416D41F063
:100AA0002001416580F8504019B00120BDE8F001F7
:100AB0007047B24201D0624501D1274A00E0274A7F
:100AC000274F0B6833B39368D1F8048023F4404375
:100AD00043EA080393600368B34201D0634509D138
:100AE000B36803F00103DCF808C00CF0010C43EA22
:100AF0000C0302E0BB6803F00103002BC7D10B68B5
:100B000089681943936823F01F0323F47063194322
:100B10009160BCE7916821F4404191600168B14265
:100B200001D0614508D1B16801F00101DCF808305D
:100B300003F00103194302E0B96801F00101002943
:100B4000A5D1916821F01F0121F4706191609EE7A9
:100B500000200240002102400023024000630258AE
:100B6000006002582DE9F84F002300220092DFF8C0
:100B7000F8A3DFF8F893FE4ADFF8F8C3CC6890F8E2
:100B80005040012C13D04FF0010880F850800468C9
:100B9000A568C5F380056DB1416D41F02001416547
:100BA0000123002180F850101846BDE8F88F02207C
:100BB000BDE8F88FE6690D682F033F0B2BD095FA3F
:100BC000A5F5B5FA85F505F01F0508FA05F53543D5
:100BD000E5618C8805680E6804F4407705EB97158D
:100BE0002F6B04F01F044FF01F0BC6F384660BFA43
:100BF00004FB06FA04F427EA0B073C432C63046861
:100C0000A568C5F38005A668C6F3C0064FF0070BBC
:100C1000354303D097E0C5F38465D4E78E680D684B
:100C200005F0007704EBD7546769C5F304550BFA58
:100C300005FE06FA05F527EA0E073D436561CE4C31
:100C4000246804F07044B4F1805F36D00468E5682D
:100C500015F0100F39D04D69E46804F010046408F1
:100C600005FA04F40D69042D3DD006680F6806EB03
:100C700085052E6E07F0F8473C4306F000463443E6
:100C80002C664D7E04680E69012D26D0002504EBEC
:100C90008604266E26F00046354325660D7E0468E0
:100CA0000E69012D1CD00025276906F01F0627F4C8
:100CB000F047B5403D43256145E005684C69ED6866
:100CC000C5F382056D00AC40CCE74D69E468C4F320
:100CD0008204640005FA04F4C4E74FF00045D6E747
:100CE0004FF40065E0E70468256E0E7805F0F845DE
:100CF000B5EB866F03D1256E25F0004525660468A7
:100D0000656E0E7805F0F845B5EB866F03D1656E1C
:100D100025F0004565660468A56E0E7805F0F84577
:100D2000B5EB866F03D1A56E25F00045A566046876
:100D3000E56E0E7805F0F845B5EB866F03D1E56EEC
:100D400025F00045E5660468A56805F00105002D5D
:100D50007FF427AF0E7B0D68D4F8C07006F018063C
:100D6000C5F3130E27EA0E07DFF810E22EFA06F697
:100D700035403D43C4F8C050CC6854457ED10C6822
:100D8000066814EA0E051AD094FAA4F5B5FA85F5AA
:100D90006D1C05F01F05092D32D8C4F31305002D75
:100DA00010D094FAA4F5B5FA85F505F1010505F022
:100DB0001F0508FA05F708D1C4F3846509E0C4F3F8
:100DC0008465E5E7C4F38465EFE794FAA4F5B5FA22
:100DD00085F505F1010505F01F0547EA856502D196
:100DE000C4F3846403E094FAA4F4B4FA84F404F140
:100DF000010404F01F0404EB440445EA045432E007
:100E0000C4F31305002D0DD094FAA4F5B5FA85F5B9
:100E100005F1010505F01F0508FA05F705D1C4F332
:100E2000846506E0C4F38465F2E794FAA4F5B5FAA4
:100E300085F505F1010505F01F0547EA856502D135
:100E4000C4F3846403E094FAA4F4B4FA84F404F1DF
:100E5000010404F01F04A4F10A0404EB440445EA6D
:100E6000045444F000748F6804F0007506EBD55507
:100E70006E69C4F304540BFA04F800E006E007FAC4
:100E800004F426EA080646EA04046C610D6815F0CD
:100E9000004F3FF486AE0168394EDFF8E8804945DF
:100EA00001D0914201D1344600E04446A46804F0E8
:100EB000E074494501D091420AD1D9F8087007F091
:100EC0000107D2F808A00AF0010A47EA0A0703E07E
:100ED000DCF8087007F001072FB1416D41F02001E7
:100EE000416501235DE605F1505717F5F80702D17A
:100EF00014F4000F21D005F1605717F52E0702D129
:100F000014F0807F50D005F1405717F590077FF41B
:100F100048AE14F4800F7FF444AE61457FF441AED7
:100F2000494502D0914200D0464644F48001B2685F
:100F300022F0E0721143B16033E661457FF431AED7
:100F4000494502D0914200D0464644F40001B268BF
:100F500022F0E0721143B1600B490C4A0968B1FB01
:100F6000F2F1491C490013E00000FF470020024055
:100F700000210240006002580010005CFFFF0F00DB
:100F8000002302400063025808000024400D0300C3
:100F90000091009900293FF404AE0099491E009188
:100FA00000990029F9D1FCE561457FF4FAAD494586
:100FB00002D0914200D0464644F08071B26822F0DF
:100FC000E0721143B160ECE50068006C704700000E
:100FD000F8B50446002500260096002C02D0606D6E
:100FE00010B107E00120F8BD204600F009F9A66520
:100FF00084F8506020688168C1F3407129B181682C
:1010000021F03F0121F02041816020688168C1F317
:101010000071B1B9816821F03F0121F0004141F038
:10102000805181606D486E490068B0FBF1F0401C52
:101030000090009828B10098401E00900098002869
:10104000F9D120688168C1F3007141B9616D41F047
:1010500010016165A16D41F00101A1650125816863
:10106000C1F38001626D02F01002114306D0606D81
:1010700040F01000606501252846F8BD616D21F43F
:10108000807141F002016165816801F0010101BBDD
:10109000544A554B904201D0984208D1916801F0D2
:1010A000010C996801F001014CEA010103E04F498C
:1010B000896801F0010161B9904201D0984201D1E3
:1010C0004B4800E04B486168826822F47C1211436F
:1010D000816000F091FA41F20301884202D9A068D0
:1010E00010280CD0A168206B227F0843617D490342
:1010F00041EA02410843217F01290CD00FE0617DC4
:10110000227F206B490340F0100041EA024108436E
:1011100040F00C00EFE7218C491E40EA4140616A33
:1011200021B1A26A01F47871084310432168CA68AA
:10113000314B1A401043C86020688168C1F38001B8
:101140008268C2F3C00211431DD1227DE16A41EAE7
:101150008231C26822F0030222F480421143C1604E
:1011600094F8380001281DD02068016921F00101A0
:10117000016120680169626B21F0704111430161D6
:101180002046FFF757FBE06801281DD02068016B5F
:1011900021F00F010163606D20F0020040F00100BA
:1011A000606569E7616C206CA28F0843A16C521ED8
:1011B00041EA0241014320680269104B1A40114381
:1011C00041F001010161D4E72068016BA26921F0BF
:1011D0000F01521E11430163DDE7000008000024E7
:1011E000400D030000200240002102400060025830
:1011F000002302400063025803C0F0FF1EF800FC09
:1012000070B5B6B0044614212FA8FFF799F8BC2199
:101210006846FFF795F81C492068884232D10220C1
:101220000422C021CDE9032005AA0024012582E87B
:101230001300242608944FF4002328948DE86800B6
:10124000684601F05FF808B1FFF7F2FB0F4801684C
:1012500041F020010160006800F0200034900B484C
:101260000830016841F00101016000682FAA0321E4
:1012700000F001003490402082E8130004482FA9B8
:1012800000F0A6F836B070BD00200240D8440258E5
:10129000000002582DE9F04104463F4E3F4F2068C0
:1012A000B04201D0B84201D13D4900E03D498968D2
:1012B00001F01F058068C0F3800018B102221046BB
:1012C000BDE8F08194F8500001280DD0012084F889
:1012D00050002046FFF742FB02464FF0000310008B
:1012E00005D084F85030EAE70220BDE8F081606D57
:1012F00020F0010020F4606040F480706065206898
:10130000B84201D1314600E00146814200D01DB90A
:10131000616D21F480116165616D11F4805F04D00D
:10132000A16D21F00601A16500E0A3651C2101600B
:1013300084F850302068B84201D1314600E00146BF
:10134000814216D0ADB1052D13D0092D11D0616D9C
:1013500041F480116165B84200D13046C06810F098
:10136000007FACD0606D20F4005040F48050606588
:10137000A5E7C16811F0007F05D0616D21F400512F
:1013800041F480516165816821F03F0121F0004105
:1013900041F00401816092E70020024000210240F8
:1013A000002302400063025870B5044600F02AF999
:1013B0000546B4F1FF3F02D004480078044400F031
:1013C00021F9401BA042FAD370BD00001000002498
:1013D0002DE9F84F00237F4C0A68002A7ED07E4F0B
:1013E00003250F26D1F800C0012202FA03F80CEA07
:1013F000080CBCF1000F72D04A68012A05D0022AFD
:1014000003D0112A01D0122A19D1D0F808905A001D
:1014100005FA02FA29EA0A09D1F80CA00AFA02F23E
:1014200042EA09028260426822EA080291F80480D6
:10143000C8F3001808FA03F848EA02024260D0F83C
:101440000C805A0005FA02F928EA0908D1F808A028
:101450000AFA02FA4AEA0808C0F80C80D1F80480B7
:10146000B8F1020F02D0B8F1120F15D14FEAD3082C
:1014700000EB8808D8F820B04FEA437A4FEADA6ADE
:1014800006FA0AFE2BEA0E0BD1F810E00EFA0AFA61
:101490004AEA0B0AC8F820A0D0F8008028EA090818
:1014A00091F8049009F0030909FA02F242EA0802ED
:1014B00002604A6812F0805F71D03A6842F002021E
:1014C0003A603A6802F00202009223F0030202F14D
:1014D000B048D8F808244FEA837901E064E05EE080
:1014E0004FEA197906FA09FA22EA0A0AA0F1B0428B
:1014F000B2F500325AD0B2F5806259D0B2F58062AE
:1015000058D0B2F5806257D0B2F5806256D0B2F5AD
:10151000806255D0B2F5806254D0B2F5806253D06B
:10152000B2F5806252D0B2F5806251D00A2202FA3E
:1015300009F242EA0A02C8F80824226822EA0C02E8
:10154000D1F8048018F4803F01D042EA0C022260F6
:10155000626822EA0C02D1F8048018F4003F01D03E
:1015600042EA0C0262604FF0B048D8F8002022EA4C
:101570000C02D1F8049019F4801F01D042EA0C0249
:10158000C8F80020D8F8042022EA0C02D1F8049010
:1015900019F4001F01D042EA0C02C8F804205B1CB9
:1015A0000A68DA407FF41EAFBDE8F88F0022BEE77C
:1015B0000122BCE70222BAE70322B8E70422B6E719
:1015C0000522B4E70622B2E70722B0E70822AEE719
:1015D0000922ACE780000058F44402580069084230
:1015E00001D00120704700207047002A01D081619E
:1015F000704709048161704701480068000C70471A
:101600000010005C01488068704700001000002452
:1016100002488168027811448160704710000024FC
:1016200010B5032000F094F801F0EEFC0F4A1168A9
:10163000C1F303230E49CB5C03F01F03D8401268AB
:1016400002F00F02895C0B4A01F01F0120FA01F140
:10165000116009490860002000F010F808B101206D
:1016600010BD00F031F8002010BD000018440258F1
:10167000245200080C0000240800002470B5044621
:101680000F4D2A78002A0CD04FF47A700D49B0FB28
:10169000F2F00968B1FBF0F002F014F918B1012082
:1016A00070BD012070BD102C07D200222146501EB3
:1016B00000F018F86C60002070BD012070BD0000C3
:1016C0001000002408000024054808B5016841F016
:1016D00002010160006800F00200009008BD0000F7
:1016E000F44402584DF8044D184B1B68C3F3022311
:1016F000C3F1070CBCF1040F01D94FF0040C1C1D01
:10170000072C01D2002300E0DB1E012404FA0CFCAC
:10171000ACF1010C0CEA0101994004FA03F35B1EE1
:101720001A401143002807DB00F1E020090180F88E
:1017300000145DF8044B704700F00F0000F1E0204A
:10174000090180F8141D5DF8044B70470CED00E0B2
:1017500000F00700064A11684FF6FF03194041EAFE
:10176000002040F0FD7040F0806010607047000085
:101770000CED00E070B515490A6812F0040F0DD0A9
:101780000A6822F0070210430860FFF73BFF044697
:101790000F4D286810F4005F09D014E0096801F0CB
:1017A0000701814201D0012070BD002070BDFFF70C
:1017B00029FF001BB0F57A7F01D9012070BD286890
:1017C00010F4005FF3D0002070BD00000C480258F8
:1017D0000448025810B501F0CBFB05490968054AD9
:1017E000C1F30211515C01F01F01C84010BD00009F
:1017F000204402582452000869490A6802F0030292
:101800000968C1F30511674B1B6803F00103DFF89A
:1018100098C1DCF800C0CCF3CC0C1CFB03F300EE49
:10182000103AB8EE400A002972D09FED601ADFED41
:10183000601A604B002AF7EE000A44D0012A7ED0DD
:10184000022A67D002EE101A1968F8EE422A81EED9
:10185000A22AC1F3080101EE901AF8EE611A40EED7
:10186000011A31EEA00A22EE000A1968C1F34621DE
:1018700001EE101AB8EE411A31EE201AC0EE011A2C
:10188000BCEEE11A80ED001A1968C1F3064101EEC1
:10189000101AB8EE411A31EE201AC0EE011ABCEE51
:1018A000E11A80ED011A1968C1F3066101EE101A00
:1018B000B8EE411A71EE200A80EE201ABCEEC10A81
:1018C00080ED020A70473C4AD2F800C01CF0200F9D
:1018D00021D01268DFF8E4C0C2F3C1022CFA02F290
:1018E00001EE902AF8EE612A01EE901A1968F8EEDE
:1018F000611A82EEA12AC1F3080101EE901AF8EEF6
:10190000611A40EE011A31EEA00A22EE000AACE79D
:1019100041E014E029E002EE101A1968F8EE422ABC
:1019200081EEA22AC1F3080101EE901AF8EE611AC5
:1019300040EE011A31EEA00A22EE000A95E701EE10
:10194000901A1968F8EE612ADFED1D1A81EEA22ABD
:10195000C1F3080101EE901AF8EE611A40EE011A87
:1019600031EEA00A22EE000A7FE701EE901ADFEDC9
:10197000152A1968F8EE611A82EEA12AC1F308014E
:1019800001EE901AF8EE611A40EE011A31EEA00A4B
:1019900022EE000A69E70021016041608160704722
:1019A000284402582C44025834440258000000399C
:1019B0000024744C30440258004402580090D00374
:1019C0000024744A0024F44A69490A6802F00302B8
:1019D0000968C1F30531674B1B68C3F30013DFF8D7
:1019E00098C1DCF800C0CCF3CC0C1CFB03F300EE78
:1019F000103AB8EE400A002972D09FED601A604B91
:101A0000002AF7EE000A46D0DFED5E1A012A68D000
:101A1000022A67D002EE101A1968F8EE422A81EE07
:101A2000A22AC1F3080101EE901AF8EE611A40EE05
:101A3000011A31EEA00A22EE000A1968C1F346210C
:101A400001EE101AB8EE411A31EE201AC0EE011A5A
:101A5000BCEEE11A80ED001A1968C1F3064101EEEF
:101A6000101AB8EE411A31EE201AC0EE011ABCEE7F
:101A7000E11A80ED011A1968C1F3066101EE101A2E
:101A8000B8EE411A71EE200A80EE201ABCEEC10AAF
:101A900080ED020A70473C4AD2F800C01CF0200FCB
:101AA00021D01268DFF8E4C0C2F3C1022CFA02F2BE
:101AB00001EE902AF8EE612A01EE901A1968F8EE0C
:101AC000611A82EEA12AC1F3080101EE901AF8EE24
:101AD000611A40EE011A31EEA00A22EE000AACE7CC
:101AE00041E016E029E001EE901ADFED292A19689D
:101AF000F8EE611A82EEA12AC1F3080101EE901AF4
:101B0000F8EE611A40EE011A31EEA00A22EE000A48
:101B100093E702EE101A1968F8EE422A81EEA22A23
:101B2000C1F3080101EE901AF8EE611A40EE011AB5
:101B300031EEA00A22EE000A7FE701EE901ADFEDF7
:101B4000152A1968F8EE611A82EEA12AC1F308017C
:101B500001EE901AF8EE611A40EE011A31EEA00A79
:101B600022EE000A69E70021016041608160704750
:101B7000284402582C4402583C44025800000039C2
:101B8000384402580024744A004402580090D0039C
:101B90000024744C0024F44A69490A6802F00302E4
:101BA0000968C1F30551674B1B68C3F30023DFF8D5
:101BB00098C1DCF800C0CCF3CC0C1CFB03F300EEA6
:101BC000103AB8EE400A002972D09FED601A604BBF
:101BD000002AF7EE000A46D0DFED5E1A012A68D02F
:101BE000022A67D002EE101A1968F8EE422A81EE36
:101BF000A22AC1F3080101EE901AF8EE611A40EE34
:101C0000011A31EEA00A22EE000A1968C1F346213A
:101C100001EE101AB8EE411A31EE201AC0EE011A88
:101C2000BCEEE11A80ED001A1968C1F3064101EE1D
:101C3000101AB8EE411A31EE201AC0EE011ABCEEAD
:101C4000E11A80ED011A1968C1F3066101EE101A5C
:101C5000B8EE411A71EE200A80EE201ABCEEC10ADD
:101C600080ED020A70473C4AD2F800C01CF0200FF9
:101C700021D01268DFF8E4C0C2F3C1022CFA02F2EC
:101C800001EE902AF8EE612A01EE901A1968F8EE3A
:101C9000611A82EEA12AC1F3080101EE901AF8EE52
:101CA000611A40EE011A31EEA00A22EE000AACE7FA
:101CB00041E016E029E001EE901ADFED292A1968CB
:101CC000F8EE611A82EEA12AC1F3080101EE901A22
:101CD000F8EE611A40EE011A31EEA00A22EE000A77
:101CE00093E702EE101A1968F8EE422A81EEA22A52
:101CF000C1F3080101EE901AF8EE611A40EE011AE4
:101D000031EEA00A22EE000A7FE701EE901ADFED25
:101D1000152A1968F8EE611A82EEA12AC1F30801AA
:101D200001EE901AF8EE611A40EE011A31EEA00AA7
:101D300022EE000A69E7002101604160816070477E
:101D4000284402582C4402584444025800000039E8
:101D5000404402580024744A004402580090D003C2
:101D60000024744C0024F44AF0B589B00246DFF830
:101D7000ECC3F94EFA4D4FEA2C13FA49341F5800C0
:101D8000B2F5807F20D0B2F5007F78D0F64FB2F563
:101D9000806F6CD0B2F5006F6AD0B2F5805F00F052
:101DA0007581B2F5002F00F0CA81B2F5803F00F0D6
:101DB0001582B2F5804F00F03082B2F5004F00F08E
:101DC000778209B00020F0BD326802F00702052AD0
:101DD00053D2DFE802F003101D502A00086810F00B
:101DE000007F05D006A8FFF707FD079809B0F0BDF2
:101DF00009B00020F0BD086810F0006F05D003A8FE
:101E0000FFF7E2FD039809B0F0BD09B00020F0BD76
:101E1000086810F0005F05D06846FFF7BDFE009827
:101E200009B0F0BD002009B0F0BD226802F04052B8
:101E30000C6814F0040F00D08AB1D1F800C01CF473
:101E4000807F02D0B2F1805F13D0096811F4003FA7
:101E500002D0B2F1005FE6D009B00020F0BD086802
:101E6000C0F3C1002CFA00F009B0F0BD07E05BE060
:101E7000B3E01846F8E72846F6E70020F4E73268B2
:101E800002F4E072802A21D003DC4AB1402A05D155
:101E900011E0C02A46D0B2F5807F22D00020E3E7CF
:101EA000086810F0007F04D006A8FFF7A5FC07988B
:101EB000DAE70020D8E7086810F0006F04D003A824
:101EC000FFF782FD0398CFE70020CDE7086810F008
:101ED000005F04D06846FFF75FFE0098C4E700206B
:101EE000C2E7226802F040520C6814F0040F00D0E0
:101EF00082B1D1F800C01CF4807F02D0B2F1805FC3
:101F00000ED0096811F4003F02D0B2F1005FABD0EF
:101F10000020A9E70868C0F3C1002CFA00F0A3E78D
:101F20001846A1E728469FE73A6802F46002B2F536
:101F3000800F23D004DC5AB1B2F5001F06D112E0A5
:101F4000B2F5C00F47D0B2F5000F22D000208BE7CA
:101F5000086810F0007F04D006A8FFF74DFC079832
:101F600082E7002080E7086810F0006F04D003A823
:101F7000FFF72AFD039877E7002075E7086810F05F
:101F8000005F04D06846FFF707FE00986CE700206A
:101F90006AE7226802F040520C6814F0040F00D087
:101FA0008AB1D1F800C01CF4807F02D0B2F1805F0A
:101FB0000FD0096811F4003F03D0B2F1005F3FF485
:101FC00053AF002050E70868C0F3C1002CFA00F0BE
:101FD0004AE7184648E7284646E73A6802F0E062D2
:101FE000B2F1007F23D004DC5AB1B2F1807F06D178
:101FF00012E0B2F1407F47D0B2F1806F22D00020D2
:1020000032E7086810F0007F04D006A8FFF7F4FB61
:10201000079829E7002027E7086810F0006F04D030
:1020200003A8FFF7D1FC03981EE700201CE708680F
:1020300010F0005F04D06846FFF7AEFD009813E78C
:10204000002011E7226802F040520C6814F0040FDF
:1020500000D08AB1D1F800C01CF4807F02D0B2F168
:10206000805F0FD0096811F4003F03D0B2F1005F28
:102070003FF4FAAE0020F7E60868C0F3C1002CFA7E
:1020800000F0F1E61846EFE62846EDE6326802F485
:10209000E042B2F5005F23D004DC5AB1B2F5805FB4
:1020A00006D112E0B2F5405F47D0B2F5804F22D0A2
:1020B0000020D9E6086810F0007F04D006A8FFF7DA
:1020C0009BFB0798D0E60020CEE6086810F0006F72
:1020D00004D003A8FFF778FC0398C5E60020C3E608
:1020E000086810F0005F04D06846FFF755FD0098BF
:1020F000BAE60020B8E6226802F040520C6814F0FC
:10210000040F00D08AB1D1F800C01CF4807F02D047
:10211000B2F1805F0FD0096811F4003F03D0B2F133
:10212000005F3FF4A1AE00209EE60868C0F3C10046
:102130002CFA00F098E6184696E6284694E63A68A7
:1021400002F4403292B1B2F5803F1AD0B2F5003FAE
:1021500022D0002088E60000504402580090D003AE
:102160000080BB000044025858440258086810F030
:10217000006F04D003A8FFF727FC039874E6002043
:1021800072E6086810F0005F04D06846FFF704FDAF
:10219000029869E6002067E6226802F040520C6867
:1021A00014F0040F00D08AB1D1F800C01CF4807F75
:1021B00002D0B2F1805F0FD0096811F4003F03D064
:1021C000B2F1005F3FF450AE00204DE60868C0F366
:1021D000C1002CFA00F047E6184645E6206800F4F6
:1021E000803020B1B0F5803F0CD000203CE608687C
:1021F00010F0007F04D006A8FFF7FEFA079833E638
:10220000002031E6086810F0006F04D003A8FFF743
:10221000DBFB059828E6002026E63A6802F0E0425B
:10222000B2F1405F29D007DC72B1B2F1805F0ED00D
:10223000B2F1005F06D115E0B2F1804F29D0B2F1C2
:10224000A04F2ED000200FE6FFF7C4FA0CE6086876
:1022500010F0006F04D003A8FFF7B6FB049803E664
:10226000002001E6086810F0005F04D06846FFF720
:1022700093FC0198F8E50020F6E5086810F0040FDB
:1022800005D00868C0F3C1002CFA00F0ECE500208E
:10229000EAE5086810F4807F01D01846E4E50020E4
:1022A000E2E5096811F4003F7FF4DEAD0020DBE5D4
:1022B000326802F040523AB1B2F1805F0BD0B2F115
:1022C000005F13D00020CFE5096811F4003F7FF4D0
:1022D000CBAD0020C8E5086810F0007F04D006A848
:1022E000FFF78AFA0798BFE50020BDE5086810F0FF
:1022F000006F04D003A8FFF767FB0498B4E5002043
:10230000B2E500002DE9F84F044600250026FC4FF9
:102310002068DFF8F08310F0006F0DD0606EB8B168
:10232000B0F5801F19D0B0F5001F1CD0B0F5401FCC
:1023300000D00125F5B12E46208810F4807F37D0DB
:10234000606D052831D2DFE800F01E23293131000D
:10235000386840F400303860ECE70221201D01F0BD
:10236000D5FC0546E6E7022104F1240001F06EFDEC
:102370000546DFE7D8F80000616E20F440100843FE
:10238000C8F80000D8E7386840F4003038600DE045
:102390000021201D01F0BAFC054607E0002104F1F0
:1023A000240001F053FD054600E0012565B12E46ED
:1023B000208810F4007F18D0A06D802831D00CDC6C
:1023C00020B340280ED126E0D8F80000616D20F03F
:1023D00007000843C8F80000EAE7C02803D0B0F5BA
:1023E000807F00D001251DB32E462088DFF818938A
:1023F00010F4806F2ED0D4F8A400B0F5800F44D034
:102400001FDCB0B3B0F5001F21D138E0386840F4CC
:1024100000303860E7E70021201D01F077FC054619
:10242000E1E7002104F1240001F010FD0546DAE7A0
:10243000D8F80000A16D20F4E0700843C8F800004F
:10244000D3E7B0F5C00F03D0B0F5000F00D00125E1
:1024500015B32E46208810F4006F30D0D4F8A800B1
:10246000B0F1007F55D021DCF0B3B0F1807F23D1F3
:1024700049E0FFE7386840F400303860E8E70021C1
:10248000201D01F043FC0546E2E7002104F1240091
:1024900001F0DCFC0546DBE7D9F80000D4F8A41015
:1024A00020F460000843C9F80000D3E7B0F1407F92
:1024B00003D0B0F1806F00D001258DB32E46206887
:1024C00010F0007F0AD0A06C30B1102833D0202843
:1024D00037D0302800D0012595B32E46208810F43F
:1024E000805F46D0E06D00E008E0B0F5005F5CD0B2
:1024F00036DCA0B3B0F5805F38D150E0386840F4E6
:1025000000303860D9E70021201D01F0FFFB0546AF
:10251000D3E7002104F1240001F098FC0546CCE744
:10252000FFE7D9F80000D4F8A81020F0E0600843D5
:10253000C9F80000C3E7386840F400303860CBE7E2
:1025400005E00221201D01F0E1FB0546C4E76F48CC
:102550000168A26C21F0300111430160BEE719E06F
:10256000B0F5405F03D0B0F5804F00D001251DB31A
:102570002E46208810F4005F30D0206EB0F5403F2A
:102580002AD022DC40B3B0F5803F39D0B0F5003F0F
:1025900021D13BE0386840F400303860E7E70021A3
:1025A000201D01F0B3FB0546E1E7002104F1240002
:1025B00001F04CFC0546DAE7D8F80000E16D20F4A4
:1025C000E0400843C8F80000D3E7B0F5802F03D0FF
:1025D000B0F5A02F00D00125FDB12E46208810F4C3
:1025E000804F2CD0D4F8AC00B0F1405F25D01DDC7A
:1025F00018B3B0F1805F56D0B0F1005F1CD158E045
:102600000121201D01F082FB0546E5E7012104F1CF
:10261000240001F01BFC0546DEE7D8F80000216E1F
:1026200020F4E0200843C8F80000D7E7B0F1804F5D
:1026300003D0B0F1A04F00D001259DB32E462088D5
:1026400010F4004F0AD0E06E30B1B0F1805F43D09B
:10265000B0F1005F45D0012595B32E46206810F0FB
:10266000807F0AD0606C30B1012855D0022858D044
:10267000032800D0012575B32E462068DFF890B0FE
:1026800010F4800F6AD02348006840F4807121481C
:102690000160FEF7B7FF82461E48006810F4807F95
:1026A0004DD059E00DE00121201D01F02FFB054622
:1026B000C3E7012104F1240001F0C8FB0546BCE793
:1026C00015E0D9F80000D4F8AC1020F0E040084341
:1026D000C9F80000B3E72AE0386840F400303860F9
:1026E000BAE70121201D01F011FB0546B4E7D8F837
:1026F0000000E16E20F040500843C8F80000ADE74C
:102700002C44025850440258584402584C44025831
:102710001044025800480258386840F400303860CD
:10272000A9E70221201D01F0F1FA0546A3E7FD48C3
:102730000168626C21F00301114301609DE7FEF71F
:1027400061FFA0EB0A00642801D9032504E0F648E4
:10275000006810F4807FF2D085B12E462078DFF833
:10276000CCA310F0010F71D0A06F18286CD066DCDC
:10277000C8B3082876D0102865D179E0DFF8B0A377
:10278000DAF80000B4F8B01000F4407001F44071C1
:10279000884211D0DAF8000020F44070DAF8001016
:1027A00041F48031CAF80010DAF8001021F48031C9
:1027B000CAF80010CAF80000D4F8B000B0F5807F65
:1027C00017D1FEF71FFF0090DAF8000010F0020F9B
:1027D0000FD1FEF717FF0099411A41F2883081426C
:1027E00002D9032505E02FE0DAF8000010F0020F0F
:1027F000EFD00DB12E46B1E7D4F8B0004FF44071E0
:1028000081430FD0DBF8000020F47C50CBF80000AF
:10281000DAF80000B4F8B010C1F30B010843CAF8AD
:1028200000009BE7DBF8001020F4407020F07040BF
:1028300021F47C5141EA1010CBF80000E8E7202891
:1028400002D0282800D00125CDB12E46207810F0E6
:10285000020F2DD0606F062827D2DFE800F027197D
:102860001F2727270121201D01F050FA0546EBE71D
:10287000012104F1240001F0E9FA0546E4E7DAF861
:102880000000A16F20F038000843CAF80000DDE71F
:102890000121201D01F03AFA054607E0012104F16B
:1028A000240001F0D3FA054600E001256DB12E4663
:1028B000207810F0040F21D0D4F8900006281AD206
:1028C000DFE800F01A0C121A1A1ADAF80000616F29
:1028D00020F007000843CAF80000E9E70121201DA5
:1028E00001F014FA054607E0012104F1240001F08B
:1028F000ADFA054600E0012595B12E46207810F08E
:10290000200F20D0D4F88C00B0F1405F19D011DC3A
:10291000B8B1B0F1805F28D0B0F1005F10D12AE0EB
:10292000D9F80000D4F8901020F007000843C9F847
:102930000000E3E7B0F1804F03D0B0F1A04F00D02A
:102940000125FDB12E46207810F0400F2DD0D4F88F
:102950009800B0F5406F26D01EDC20B3B0F5806F34
:1029600035D0B0F5006F1DD137E00021201D01F0FA
:10297000CDF90546E5E7022104F1240001F066FAED
:102980000546DEE7DAF80000D4F88C1020F0E040CD
:102990000843CAF80000D6E7B0F5805F03D0B0F571
:1029A000A05F00D00125FDB12E46207810F0800FE9
:1029B0002DD0D4F89C00B0F5C04F26D01EDC20B33B
:1029C000B0F5005F2DD0B0F5804F1DD12FE0002174
:1029D000201D01F09BF90546E5E7022104F12400E2
:1029E00001F034FA0546DEE7D9F80000D4F8981073
:1029F00020F4E0500843C9F80000D6E7B0F5004FD6
:102A000003D0B0F5204F00D00125BDB12E4620786F
:102A100010F0080F2CD0D4F88000B0F5805F17D0EC
:102A20001DE00021201D01F071F90546EDE70221AE
:102A300004F1240001F00AFA0546E6E7D9F800009F
:102A4000D4F89C1020F460400843C9F80000DEE789
:102A5000022104F1240001F0F9F900B10126DAF8AD
:102A60000000D4F8801020F440500843CAF8000059
:102A7000207810F0100F14D0D4F89400B0F5807FB7
:102A800006D1022104F1240001F0E0F900B1012691
:102A9000D9F80000D4F8941020F440700843C9F825
:102AA0000000206810F4002F0BD0D4F8A000C0B3B1
:102AB000B0F5803F7DD0B0F5003F00D00125CDB30B
:102AC0002E46206810F4802F0DD0D4F88400B0F585
:102AD000801F70D0B0F5001F6ED0B0F5401F00D041
:102AE000012545B32E46206810F4803F07D0E06CE6
:102AF000F0B3B0F5803F7DD00125D5B32E462068D8
:102B000010F0005F06D0022104F1240001F09EF9CC
:102B100000B10126206810F4003F19D0E06FA8B181
:102B20000AE071E04C4402580048025854440258EC
:102B30007044025876E08BE0B0F5807F71D0B0F53C
:102B4000007F03D0B0F5407F00D0012595B32E461D
:102B5000206810F4801F07D0D8F80000216F20F003
:102B600000400843C8F80000206810F0805F01E0D2
:102B700079E083E008D0DBF80000D4F8B41020F44A
:102B800080400843CBF80000206810F4001F07D0F5
:102B9000D8F80000A16E20F080700843C8F800004B
:102BA000206810F0804F11D0DBF8000020F40040C6
:102BB00003E02FE06FE03FE043E0CBF80000DBF8FC
:102BC0000000D4F8B8100843CBF80000206810F0DB
:102BD000004F06D036480168226D21F04051114364
:102BE0000160206810F4000F0AD0DAF8000020F429
:102BF000400000E03CE0D4F888100843CAF8000028
:102C000086B30120BDE8F88F0021201D01F07EF879
:102C1000054654E7022104F1240001F017F90546A6
:102C20004DE733E0D9F80000D4F8A01020F440308C
:102C30000843C9F8000044E7386840F400303860C1
:102C40004FE7012104F1240001F000F9054648E7AF
:102C5000DAF80000D4F8841020F440100843CAF8D1
:102C6000000040E720E0386840F40030386044E776
:102C70000221201D01F04AF805463EE70C48016894
:102C8000E26C21F480311143016038E7386840F488
:102C9000003038605AE7DAF80000E16F20F4407045
:102CA0000843CAF8000053E70020BDE8F88F000091
:102CB0004C4402582DE9F05F04460D46002C17D015
:102CC000DFF88492D9F8000000F00F00A84212D279
:102CD000D9F8000020F00F002843C9F80000D9F807
:102CE000000000F00F00A84205D00120BDE8F09FD1
:102CF0000120BDE8F09F2078944E10F0040F0AD018
:102D00002069316801F07001884204D9316821F0EE
:102D100070010843306020788D4F10F0080F0AD002
:102D20006069396801F07001884204D9396821F07E
:102D3000700108433860207810F0100F0AD0A069A5
:102D4000396801F4E061884204D9396821F4E0610E
:102D5000084338602078DFF8FCB110F0200F0DD068
:102D6000E069DBF8001001F07001884206D9DBF859
:102D7000001021F070010843CBF80000207810F01B
:102D8000020F0AD0E068316801F00F01884204D9CF
:102D9000316821F00F0108433060207810F0010FF6
:102DA00051D03068A16820F47060084330606068DA
:102DB0006949022808D003280DD0012812D00968DB
:102DC00011F0040F34D011E0096811F4003F0DD167
:102DD0000120BDE8F09F096811F0007F06D10120B5
:102DE000BDE8F09F096811F4807F1ED0DFF86CA168
:102DF000DAF8001021F007010843CAF80000FEF7D6
:102E000001FC8046DAF80000616800F03800B0EBA1
:102E1000C10F18D0FEF7F6FBA0EB080141F2883095
:102E2000814208D90320BDE8F09F0120BDE8F09F52
:102E30000120BDE8F09FDAF80000616800F038007A
:102E4000B0EBC10FE6D1207810F0020F0AD0E06895
:102E5000316801F00F01884204D2316821F00F017E
:102E600008433060D9F8000000F00F00A8420FD9E5
:102E7000D9F8000020F00F002843C9F80000D9F865
:102E8000000000F00F00A84202D00120BDE8F09F32
:102E9000207810F0040F0AD02069316801F0700129
:102EA000884204D2316821F07001084330602078F4
:102EB00010F0080F0AD06069396801F0700188428B
:102EC00004D2396821F0700108433860207810F08E
:102ED000100F0AD0A069396801F4E061884204D279
:102EE000396821F4E06108433860207810F0200F41
:102EF0000DD0E069DBF8001001F07001884206D2C5
:102F0000DBF8001021F070010843CBF8000000F05E
:102F10007BF83168C1F3032211498A5C02F01F0279
:102F2000D040326802F00F02895C0E4A01F01F01A6
:102F300020FA01F111600C4908600C480068BDE8F6
:102F4000F05FFEF79BBB00000020005218440258BF
:102F50001C440258204402580044025810440258AD
:102F6000245200080C00002408000024140000244F
:102F70004DF804ED00F048F80B4A11680B4BC1F313
:102F80000321595C01F01F0120FA01F11068084A81
:102F900000F00F00185C00F01F0021FA00F0106034
:102FA000044A11605DF804FB1844025824520008DA
:102FB0000C000024080000244DF804EDFFF7D8FFB2
:102FC00005490968054AC1F30211515C01F01F016E
:102FD000C8405DF804FB00001C440258245200085D
:102FE0004DF804EDFFF7C4FF05490968054AC1F330
:102FF0000221515C01F01F01C8405DF804FB000094
:103000001C440258245200084DF8044D69480068D9
:10301000DFF8A4C1694B10F038014ED008294FEAFF
:103020002C1047D0102959D0182943D16448016881
:1030300001F003010068C0F30510624A126802F053
:103040000102614C2468C4F3CC0414FB02F200EECC
:10305000102AB8EE400A00287BD0DFED5C0A5C4AFB
:10306000B7EE001AA9B39FED5B2A012974D002299B
:1030700071D001EE900A1068F8EE611AC2EE212AB2
:10308000C0F3080001EE900AF8EE611A40EE201A33
:1030900031EE810A22EE800A1068C0F34620401CFF
:1030A00000EE900AF8EE600A80EE201ABCEEC10A2B
:1030B00010EE100A5DF8044B7047186810F0200FEE
:1030C00008D018685DF8044BC0F3C1002CFA00F07A
:1030D000704707E05DF8044B604670473E485DF876
:1030E000044B7047196811F0200F1CD01968C1F308
:1030F000C1012CFA01F101EE901AF8EE612A01EEFD
:10310000900A1068F8EE611A82EEA12AC0F3080056
:1031100001EE900AF8EE611A40EE201A31EE810AB3
:1031200022EE000AB8E701EE900ADFED2C2A1068C3
:10313000F8EE611A82EEA12AC0F3080001EE900AAF
:10314000F8EE611A40EE201A31EE810A22EE000AF2
:10315000A2E72BE000E013E001EE900A1068F8EE21
:10316000611AC2EE212AC0F3080001EE900AF8EEBF
:10317000611A40EE201A31EE810A22EE800A8BE7B6
:1031800001EE900ADFED162A1068F8EE611A82EE61
:10319000A12AC0F3080001EE900AF8EE611A40EE91
:1031A000201A31EE810A22EE000A75E75DF8044B21
:1031B00000207047104402580090D0030044025889
:1031C000284402582C440258344402580000003964
:1031D000304402580024744A00127A000024744CCF
:1031E0000024F44A2DE9F05F0446002C11D0207829
:1031F000DFF8F883FE4F10F0010FFE4D6BD0D8F8CA
:10320000000000F038003968102823D0182803D0B7
:1032100006E00120BDE8F09F01F00300022819D06C
:103220006068B0F5803F1ED010B3B0F5A02F28D055
:10323000286820F480302860286820F480202860E6
:10324000606878B3FEF7DEF90646286810F4003FA0
:1032500020D040E0286810F4003F3CD0606830BBCC
:103260000120BDE8F09F286840F480302860E7E73F
:10327000286820F480302860286820F480202860A6
:10328000DEE7286840F480202860286840F4803019
:103290002860D5E7FEF7B6F9801B642803D9032020
:1032A000BDE8F09F04E0286810F4003FF2D012E07F
:1032B000FEF7A8F90646286810F4003F0BD0FEF789
:1032C000A1F9801B642802D90320BDE8F09F28687B
:1032D00010F4003FF3D1207841F20309C64E10F0FC
:1032E000020F5AD0D8F8000000F03800396898B1C1
:1032F000182802D111F0030F0ED0E06890B32968AE
:1033000021F0190108432860FEF77CF982462868FD
:1033100010F0040F27D033E0286810F0040F01D01C
:10332000E06868B1FEF768F9484513D8206940287D
:1033300009D0316821F47C3141EA0030306054E03A
:103340000120BDE8F09F306820F47C3040F400306C
:1033500030604AE03068217C20F0FE4040EA0160A5
:10336000306042E029E0FEF74DF9A0EB0A000228A8
:1033700002D90320BDE8F09F286810F0040FF2D0B6
:10338000FEF73AF9484510D82069402806D0316840
:1033900021F47C3141EA0030306026E0306820F4CE
:1033A0007C3040F4003030601FE03068217C20F039
:1033B000FE4040EA0160306017E0286820F001001C
:1033C0002860FEF71FF98246286810F0040F0CD021
:1033D000FEF718F9A0EB0A00022802D90320BDE885
:1033E000F09F286810F0040FF2D1207810F0100F31
:1033F00045D0D8F8000000F038003968DFF8FCB19B
:10340000082813D0182803D101F0030001280DD09B
:10341000E069A8B3286840F080002860FEF7F2F861
:103420008246286810F4807F2BD037E0286810F49B
:10343000807F05D0E069802802D00120BDE8F09FA0
:10344000FEF7DAF8484510D8206A202806D03168FF
:1034500021F0F84141EA8060306056E0306820F0A9
:10346000F84040F0804030604FE0DBF8000094F816
:10347000201020F07C5040EA0160CBF8000044E0CE
:103480002CE0FEF7BFF8A0EB0A00022802D90320C7
:10349000BDE8F09F286810F4807FF2D0FEF7ACF80A
:1034A000484510D8206A202806D0316821F0F8411C
:1034B00041EA8060306028E0306820F0F84040F059
:1034C0008040306021E0DBF8000094F8201020F00C
:1034D0007C5040EA0160CBF8000016E0286820F03C
:1034E00080002860FEF78EF80646286810F4807F7A
:1034F0000BD0FEF787F8801B022802D90320BDE815
:10350000F09F286810F4807FF3D1207810F0080F26
:103510003AD0DFF8EC906069D8B1D9F8000040F0FB
:103520000100C9F80000FEF76DF80646D9F8000062
:1035300010F0020F28D1FEF765F8801B022802D98F
:103540000320BDE8F09FD9F8000010F0020FF2D080
:103550001AE0D9F8000020F00100C9F80000FEF7D9
:1035600051F80646D9F8000010F0020F0CD0FEF713
:1035700049F8801B022802D90320BDE8F09FD9F842
:10358000000010F0020FF2D1207810F0200F3DD093
:10359000A069B8B1286840F480502860FEF732F87E
:1035A0000646286810F4005F30D1FEF72BF8801B28
:1035B000022802D90320BDE8F09F286810F4005FBC
:1035C000F3D023E0286820F480502860FEF71AF832
:1035D0000646286810F4005F18D0FEF713F8801B29
:1035E00002280FD90320BDE8F09F000010440258C4
:1035F0002844025800440258044402580C4402581B
:1036000074440258286810F4005FE6D1207810F066
:10361000040F7BD0A64E306840F480703060FDF718
:10362000F1FF8146306810F4807F0BD1FDF7EAFF8F
:10363000A0EB0900642801D90320D4E7306810F416
:10364000807FF3D0A068DFF86C9201281BD008B30C
:1036500005282CD0D9F8000020F00100C9F800009E
:10366000D9F8000020F00400C9F80000A06841F279
:10367000883A80B3FDF7C6FF0646D9F8000010F07F
:10368000020F21D042E0D9F8000040F00100C9F853
:103690000000EBE7D9F8000020F00100C9F80000B5
:1036A000D9F8000020F00400C9F80000DEE7D9F8DE
:1036B000000040F00400C9F80000D9F8000040F014
:1036C0000100C9F80000D1E7FDF79CFF801B5045C1
:1036D00002D9032087E705E0D9F8000010F0020FB7
:1036E000F2D013E0FDF78EFF0646D9F8000010F087
:1036F000020F0BD0FDF786FF801B504501D9032038
:1037000071E7D9F8000010F0020FF3D1616AE9B354
:10371000D8F80000DFF8A08100F0380018287DD02C
:10372000022911D0286820F080702860FDF76AFF18
:103730000446286810F0007F28D0FDF763FF001BC7
:1037400002286CD903204EE7286820F0807028609A
:10375000FDF758FF0646286810F0007F0AD0FDF7F5
:1037600051FF801B022801D903203CE7286810F094
:10377000007FF4D13868E16A20F0F30020F4407053
:1037800040EA0110A16A0843386000E08DE0208E15
:103790004FF47E42616B401E491EC0F3080002EAEE
:1037A00041210843218F4A1E4FF4FE0101EA0241E4
:1037B000084394F83C104FF0FE42491E02EA0161B2
:1037C0000843C8F800003D48016821F0010101608C
:1037D0003B490A68A36C6FF3CF0242EAC3020A6056
:1037E0000168226C21F00C01114301600168626CD8
:1037F00021F0020111430160016841F48031016050
:10380000016841F400310160016841F480210160E8
:10381000016841F001010160286801E01CE015E049
:1038200040F080702860FDF7EDFE0446286810F037
:10383000007F3AD1FDF7E6FE001B022801D90320E4
:10384000D1E6286810F0007FF4D02EE0286810F050
:10385000007F7FF472AF28E03A68D8F800000129B1
:1038600021D0A36A02F0030199421CD1E16AC2F39C
:103870000512914217D1226BC0F30801521E9142EA
:1038800011D1616BC0F34622491E91420BD1A16B4D
:10389000C0F30642491E914205D1E16BC0F30660B8
:1038A000491E814201D001209DE600209BE60000D8
:1038B0000048025870440258304402582C440258C0
:1038C00034440258401EB0F1807F01D3012070477C
:1038D0004FF0E0214861F020034A10700020886119
:1038E000072008610020704723ED00E090F8801069
:1038F000012918D0012180F880102421C0F88410FB
:1039000001680A680B6823F001030B6022F0005184
:1039100000224266036819602021C0F8841080F8F4
:103920008020002070470220704770B5044694F84C
:10393000800001281DD0012084F880002420C4F8D4
:10394000840020680568026822F001020260206895
:10395000826822F0606211438160204600F0E8FB3B
:10396000206805602020C4F88400002084F88000CE
:1039700070BD022070BD70B5044694F88000012827
:103980001DD0012084F880002420C4F88400206821
:103990000568026822F0010202602068826822F055
:1039A000604211438160204600F0C2FB2068056040
:1039B0002020C4F88400002084F8800070BD02201C
:1039C00070BD10B50446002C03D0D4F8840010B1AB
:1039D00007E0012010BD002084F88000204600F0A0
:1039E00029F82420C4F884002068016821F001012E
:1039F0000160204600F06AFC012818D0A06A10B1CE
:103A0000204600F0C3FB2068416821F490414160EA
:103A10002068816821F02A0181602068016841F0F6
:103A2000010101602046BDE8104000F01BBC0120F0
:103A300010BD000010B5B6B0044614212FA8FCF745
:103A40007FFCBC216846FCF77BFC18492068884253
:103A500029D100241E94012000906846FEF752FCF4
:103A600008B1FCF7E5FF1248016841F01001016060
:103A7000006800F0100034900D481038016841F0E3
:103A80000101016000682FAB022100F001003490B9
:103A90004FF4C060072283E8130006482FA9CDE940
:103AA0003242FDF795FC36B010BD00000010014019
:103AB000F0440258000002582DE9F84304460E462F
:103AC00015461F46D4F88400202802D00220BDE805
:103AD000F883D6B1CDB194F88000012818D0012028
:103AE00084F880004FF00009C4F88C902120C4F8BD
:103AF0008400FDF787FD8046A4F85450A4F8565082
:103B0000A068B0F5805F06D007E00120BDE8F8832B
:103B10000220BDE8F883206988B13546002684F884
:103B20008090B4F85600D0B1002243468021204650
:103B3000009700F021FE20B10320BDE8F8830025A6
:103B4000EDE7BDB12168287888626D1CB4F8560095
:103B5000401EA4F85600B4F856000028E4D1002214
:103B6000434640212046009700F006FE48B103205E
:103B7000BDE8F88321683088C0F308008862B61C6D
:103B8000E4E72020C4F884000020BDE8F883FEE7C5
:103B900030B58BB0002468461C2107940894099422
:103BA000FCF7CEFB1B480425194901232A0480E8B1
:103BB0001600C0E9034504754475836104774462C7
:103BC0008462C4620463446380F83840FDF700FAFD
:103BD00008B1FCF72DFF0F4807A90794FCF72AFF4F
:103BE00008B1FCF725FF0C48062140F2FF72039252
:103BF0008DE8130007486946CDE904548DF8194053
:103C0000FCF7B0FF002801D0FCF712FF0BB030BD6D
:103C100000200240200000240800900C70B586B0FF
:103C200014216846FCF78CFB1948016841F08001BB
:103C30000160016801F080010591016841F0010116
:103C40000160016801F001010591016841F0020184
:103C50000160006800220F4E402100F00200059034
:103C60003046FDF7C2FC00246946012510208DE88E
:103C700031000948FDF7ACFB40200090CDE901542C
:103C8000694630460394FDF7A3FB06B070BD000003
:103C9000E04402580004025800000258184800216D
:103CA00010B5164C0C224FF4E1330460C0E9013129
:103CB000C160C0E904128161C16101624162816237
:103CC000FFF77FFE08B1FCF7B3FE0D480021FFF7B8
:103CD00052FE08B1FCF7ACFE09480021FFF725FEB3
:103CE00008B1FCF7A5FE0648FFF700FE002803D048
:103CF000BDE81040FCF79CBE10BD00000010014064
:103D000084000024FEE7FEE7704700002DE9F0473D
:103D1000044688460027DFF82091D9F800000321E7
:103D200031EA000013D0454D286820F080602860FB
:103D3000FDF768FC0646286810F0006F0ED0FDF70E
:103D400061FC801B022805D90320BDE8F087012013
:103D5000BDE8F087286810F0006FF0D1D9F80000B6
:103D6000216820F47C3040EA0130C9F80000A088C6
:103D70004FF47E42A168401E491EC0F3080002EACB
:103D800041210843A189D201491E02EA01410843A9
:103D9000217C491E120202EA016108432849086099
:103DA00028480168626921F0C0011143016001687F
:103DB000A26921F0200111430160016821F0100186
:103DC000016021490A68E3696FF3CF0242EAC30246
:103DD0000A60016841F010010160B8F1000F12D0D3
:103DE000B8F1010F14D0016841F400110160286896
:103DF00040F080602860FDF705FC0446286810F05C
:103E0000006F0AD015E0016841F400210160EEE77F
:103E1000016841F480110160E9E7FDF7F3FB001B45
:103E2000022802D90320BDE8F087286810F0006F4F
:103E3000F3D03846BDE8F0872844025800440258C1
:103E4000384402582C4402583C4402582DE9F047AB
:103E5000044688460027DFF82091D9F800000321A6
:103E600031EA000013D0454D286820F080502860CA
:103E7000FDF7C8FB0646286810F0005F0ED0FDF77E
:103E8000C1FB801B022805D90320BDE8F087012073
:103E9000BDE8F087286810F0005FF0D1D9F8000085
:103EA000218820F07C7040EA0150C9F80000A08809
:103EB0004FF47E42A168401E491EC0F3080002EA8A
:103EC00041210843A189D201491E02EA0141084368
:103ED000217C491E120202EA016108432849086058
:103EE00028480168626921F440611143016001685A
:103EF000A26921F4007111430160016821F480710D
:103F0000016021490A68E3696FF3CF0242EAC30204
:103F10000A60016841F480710160B8F1000F12D0AD
:103F2000B8F1010F14D0016841F080710160286878
:103F300040F080502860FDF765FB0446286810F0CB
:103F4000005F0AD015E0016841F480010160EEE7EE
:103F5000016841F400010160E9E7FDF753FB001B34
:103F6000022802D90320BDE8F087286810F0005F1E
:103F7000F3D03846BDE8F087284402580044025880
:103F8000404402582C440258444402587047FDF7FC
:103F90003FBB000070B59CB04C216846FCF7D0F9DF
:103FA000202113A8FCF7CCF90220FDF7E3FB2448FD
:103FB00000242449026842F44042026002680A6810
:103FC00042F001020A60096801F001011B910168D9
:103FD000C9438904FBD41C4901220B6802207826BE
:103FE000C50323F003039B1C0B600AAB0990CDE9CA
:103FF00000250C2183E845000FAA0D900E9082E861
:10400000130068461294FFF7EDF808B172B6FEE7A8
:1040100040201A9008230501CDE9163013ABCDE9F5
:1040200018053F21032283E81600042113A8FEF798
:1040300041FE002801D072B6FEE71CB070BD000042
:10404000184802582C040058284402582E48F0B54D
:104050002E4A016841F470010160106800F00F0001
:10406000072804D2106820F00F00C01D10602849F6
:104070000020274C10340B68264D43F001030B60E1
:1040800020600B682B400B60136803F00F03072BB5
:1040900004D9136823F00F03DB1D13601C4C1E4A68
:1040A00018341E4B261D371D2060194C1C4D28341A
:1040B0003060261D3860371D23603B1D35601C1D98
:1040C0003A60251D2E1D1860331D22602860326065
:1040D00018600A680E4B134C22F4802260330A6089
:1040E000186020686FF30F00B0F1005F03D20E4933
:1040F0000120C1F8080143F2D2000C49024B4A03E7
:10410000803B08601A60F0BD88ED00E0002000529E
:10411000004402587FEDF6EA80020101000202022B
:104120000000FF010010005C0080005100400052C0
:104130004DF8044D416E00291DD002689168C1F30D
:1041400042619268520F104B13F802C04FEA0C14F0
:1041500003F1080C1CF80220B4FBF2F2A0F86A206C
:104160005A5C1CF801101201B2FBF1F1A0F86810C2
:104170005DF8044B70470121A0F86A10A0F86810A0
:104180005DF8044B704700004C52000890F828106E
:1041900011F0010F06D001684A68C36A22F40032A8
:1041A0001A434A6090F8281011F0020F06D00168F7
:1041B0004A68036B22F480321A434A6090F8281050
:1041C00011F0040F06D001684A68436B22F4802284
:1041D0001A434A6090F8281011F0080F06D00168C1
:1041E0004A68836B22F400421A434A6090F8281010
:1041F00011F0100F06D001688A68C36B22F4805258
:104200001A438A6090F8281011F0200F06D0016838
:104210008A68036C22F400521A438A6090F82810CE
:1042200011F0400F11D001684A68436C22F48012EB
:104230001A434A60416CB1F5801F06D101684A6893
:10424000836C22F4C0021A434A6090F8281011F0DF
:10425000800F06D001684A68C06C22F40022104327
:1042600048607047F8B504460025C4F88C50FDF747
:10427000C9F90746206800686FF07E4610F0080F05
:104280000AD000223B464FF400112046009600F071
:1042900073FA08B10320F8BD2068006810F0040F1D
:1042A0000AD000223B464FF480012046009600F0E1
:1042B00063FA08B10320F8BD2020C4F88400C4F8D4
:1042C0008800E56684F880500020F8BD2DE9F043B1
:1042D00087B004460025F84B20682269A168D4F80D
:1042E0001CC01143626942EA0C0211430268DFF804
:1042F000CCC302EA0C021143016020684168E26805
:1043000021F4405111434160A0692168994201D0D4
:10431000226A10438A6822F4306222F06E4210430F
:1043200088602068C16A626A21F00F011143C1628E
:104330002268E348A2F18041B1F5883121D011F51E
:104340004C413CD0B1F5806151D0B1F5806166D06F
:10435000B1F580616FD0B1F544416DD011F51C41CC
:104360006BD0B1F5806169D09A4268D1001D0068B8
:1043700000F0070006286FD2DFE800F0D5D7D9DBC0
:10438000DDDF006800F03800182812D005DC50B1DD
:1043900008280AD0102804D109E020280BD02828AA
:1043A0000BD08021CEE00121CCE00421CAE008211D
:1043B000C8E01021C6E02021C4E04021C2E000682E
:1043C00000F00700062810D2DFE800F00305070917
:1043D0000B0D0021B6E00421B4E00821B2E0102169
:1043E000B0E02021AEE04021ACE08021AAE00068EE
:1043F00000F00700062810D2DFE800F003050709E7
:104400000B0D00219EE004219CE008219AE0102180
:1044100098E0202196E0402194E0802192E000681D
:1044200000F00700062815D2DFE800F0030A0C0EA2
:104430001012002186E010E027E044E05BE080E01D
:1044400004217FE008217DE010217BE0202179E03C
:10445000402177E0802175E071E0006800F00700FE
:10446000062810D2DFE800F0030507090B0D002134
:1044700068E0042166E0082164E0102162E0202168
:1044800060E040215EE080215CE0006800F03800E0
:10449000182812D005DC50B108280AD0102804D101
:1044A00009E020280BD028280BD080214AE00121E8
:1044B00048E0042146E0082144E0102142E02021A8
:1044C00040E040213EE0006800F00700062810D2DE
:1044D000DFE800F0030507090B0D002132E004219D
:1044E00030E008212EE010212CE020212AE040219C
:1044F00028E0802126E0006800F00700062810D29E
:10450000DFE800F0030507090B0D00211AE0042184
:1045100018E0082116E0102114E0202112E04021CB
:1045200010E080210EE002210CE004210AE00821C5
:1045300008E0102106E0202104E0402102E0802173
:1045400000E080215F48604E0027DFF880919A42AA
:104550004FEA201C57D110292AD006DC02291AD094
:1045600004291BD0082904D11DE020292BD0402983
:104570002BD000200125E8B3616A36F81120B0FB8A
:10458000F2F1666806EB46038B4202D8B1EB063FB8
:104590001ED90125E5E0FDF71DF9ECE704A8FDF7BC
:1045A00013FA0598E7E701A8FDF7F6FA0298E2E7A3
:1045B000D9F8001011F0200FDDD0D9F80010C1F3A8
:1045C000C101C840D7E76046D5E74FF40040D2E7C5
:1045D00000231946FBF77CFE0902020241EA106142
:1045E00070081018324679410023FBF771FEA0F5E0
:1045F000407100E05EE0364A914202D82168C8600E
:10460000AFE00125ADE0E2694FF6EF78B2F5004F7B
:1046100008D008297ED064DC79B301297BD0042935
:1046200065D182E0082935D005DC39B3012929D0CC
:10463000042906D129E0102931D020294AD0402967
:104640004AD000200125A8B3616A36F81110B0FBEA
:10465000F1F04100606801EB5001B1FBF0F080B275
:10466000A0F1100141453AD84FF6F0710140C0F376
:10467000420008432168C86073E050E0FFE7FEF79E
:104680009BFCE0E7FEF7ACFCDDE704A8FDF79CF936
:104690000598D8E701A8FDF77FFA0298D3E7D9F883
:1046A000001011F0200FCED0D9F80010C1F3C101D5
:1046B000C840C8E74EE00000000C0058F369FFCF87
:1046C000544402580090D003345200080044025869
:1046D000FFFC0F006046B6E74FF40040B3E701254A
:1046E0003FE010292BD0202935D0402935D000209B
:1046F000012578B3616A36F81110B0FBF1F16068FA
:1047000001EB5001B1FBF0F080B2A0F11001414586
:1047100026D801E00EE005E02168C86021E0FEF740
:104720004BFCE6E7FEF75CFCE3E704A8FDF74CF979
:104730000598DEE701A8FDF72FFA0298D9E7D9F826
:10474000001011F0200FD4D0D9F80010C1F3C1012E
:10475000C840CEE705E06046CBE74FF40040C8E72D
:1047600001250120A4F86A00A4F86800276767679C
:1047700007B02846BDE8F0832DE9F04704460E4611
:1047800017469846089D2068C06936EA000032D076
:104790000020B8424CD14FF0000A4FF02009B5F18B
:1047A000FF3F3DD0FCF72EFFA0EB0800A84224D825
:1047B0001DB32068016811F0040F31D0C06910F4F6
:1047C000006F2DD021684FF40060086220680168F6
:1047D00021F4D07101602068816821F001018160BD
:1047E000C4F88490C4F88890C4F88C9084F880A0B1
:1047F0000320BDE8F0870120CBE72068016821F4A1
:10480000D07101602068816821F001018160C4F8E5
:104810008490C4F8889084F880A00320BDE8F087D5
:104820002068C06936EA000005D00020B842B6D042
:104830000020BDE8F0870120F8E7FEE70FB4054B44
:1048400010B503A9044A029800F0CAF810BC5DF83C
:1048500014FB0000115100081C00002402E008C8ED
:10486000121F08C1002AFAD170477047002001E0EA
:1048700001C1121F002AFBD1704700002DE9FF5F24
:10488000DDE90220010DDDF838B0024318D044F60E
:104890001050A1F2FF3141430D140F98012820D090
:1048A000A5EB0B00401C5FEA000A4FF00004474EE6
:1048B000DFF81C91A046504616D5CAF1000728E043
:1048C0000F98012443A2012808D0002100980F9BD3
:1048D000C0E90021C0E90243BDE8FF9F6FEA0B0178
:1048E000F4E7CBF10000DEE7074612E0F80707D057
:1048F0002246334640464946FBF709FE8046894634
:104900002246334610461946FBF701FE04460E4682
:104910007F10002FEAD1DDE90201BAF1000F424613
:104920004B4602DAFBF7F3FD01E0FBF762FE0446BB
:104930000E460022284BFBF7E3FE03D84FF0FF3072
:10494000014607E00022254B20463146FBF738FDA3
:10495000FBF7BEFE102409E0002C0ADB0A2200232C
:10496000FBF7B6FC019B30321A55641E50EA010277
:10497000F2D1641C019AC4F1110314440F9A012A64
:1049800003D0012208430DD10AE0084304D00020DF
:104990004FF0110B0F9080E7A3EB0B056D1E0DE0A0
:1049A0005B4504DD4FF0000205F1010504E003DA88
:1049B0004FF00002A5F10105002AECD000980F99F4
:1049C000C0E90231C0E9004586E70000000024404C
:1049D0000000F03F300000000000F0430000E03F26
:1049E0002DE9FF4F95B09B468946064600250FE20C
:1049F000252877D100242746F84A0121059400E0B4
:104A0000044316F8013F203B01FA03F01042F7D1AE
:104A100030782A2811D06FF02F033078A0F13002BF
:104A2000092A16D8059A44F0020402EB820203EB2D
:104A300042021044761C0590EFE759F8042B0592CA
:104A4000002A03DA504244F40054059044F0020472
:104A5000761C30782E2816D116F8010F44F0040485
:104A60002A280DD06FF02F023078A0F13003092BE7
:104A700009D807EB870302EB4303C718761CF3E75B
:104A800059F8047B761C30786C280FD006DC4C2853
:104A900017D068280DD06A2814D104E0742810D0EB
:104AA0007A280FD10DE044F400140AE044F4801495
:104AB00001E044F440147278824202D104F580147B
:104AC000761C761C307866280BD013DC582877D0FB
:104AD00009DC002875D04528F6D04628F4D04728B0
:104AE0001AD19DE118E0632835D0642879D0652873
:104AF00012D195E1702873D008DC6728F1D06928BD
:104B00006FD06E280DD06F2806D1B5E073282CD059
:104B1000752875D0782874D05A46179990476D1C1F
:104B200075E1C4F30250022809D003280DD0D9F84A
:104B3000001004280DD00D6009F1040967E1D9F8CF
:104B40000010EA17C1E90052F6E7D9F800100D800D
:104B5000F2E70D70F0E719F8041B8DF80010002043
:104B60008DF80100EA46012003E059F804AB4FF04C
:104B7000FF3061074FF0000102D40DE008F10101A0
:104B80008846B9420FDA8045F8DB1AF80810002988
:104B9000F4D108E008F1010188468142FADB1AF8F5
:104BA00008100029F6D105985B46A0EB08072146BE
:104BB0003846179A00F094FA284400EB080507E0FD
:104BC0004DE029E10DE01AF8010B5A46179990477C
:104BD000B8F10108F7D25B4621463846179A13E12F
:104BE00042E00A220092C4F302524FF0000A022A65
:104BF00008D059F804CB032A4FEAEC710AD00DE033
:104C000029E02AE009F1070121F00702F2E802C1D8
:104C1000914609E00FFA8CFC4FEAEC71042A03D1AB
:104C20004FFA8CFC4FEAEC71002907DA0A460021A2
:104C3000DCF1000C61EB02012D2202E0220504D51B
:104C40002B228DF80420012203E0E20701D020226C
:104C5000F7E7904659E00A2102E010220DE010210A
:104C60004FF0000A00910BE010224FF0000A44F0D0
:104C700004040827009203E008224FF0000A009283
:104C8000C4F30252022A05D059F804CB0021032AAA
:104C900008D009E009F1070121F00702F2E802C19A
:104CA000914605E01FFA8CFC042A01D10CF0FF0CA0
:104CB0004FF00008220728D5702806D0009B83F00B
:104CC000100353EA0A0305D00EE040228DF80420B9
:104CD000012208E05CEA010206D030228DF80420AF
:104CE0008DF8050002229046009B83F0080353EAEA
:104CF0000A030AD15CEA010201D1620705D530221C
:104D00008DF804204FF001087F1E582804D034A0ED
:104D100003900EA802900DE036A0F9E753466046D6
:104D2000009AFBF7D5FA84460398825C0298401EED
:104D3000029002705CEA0100F0D1029806A9081AFC
:104D400000F1200A600702D524F4803400E0012736
:104D5000574502DDA7EB0A0000E0002000EB0A0146
:104D6000009005984144401A0590E00306D45B4644
:104D70002146179A059800F0B3F90544002706E08C
:104D800001A85A46C05D179990476D1C7F1C474586
:104D9000F6DBE0030CD55B462146179A059800F038
:104DA0009FF9054404E030205A46179990476D1C3E
:104DB0000099481E00900029F5DC08E0029802994D
:104DC0005A460078491C0291179990476D1CBAF118
:104DD0000001AAF1010AF1DC65E1000009280100E7
:104DE0003031323334353637383961626364656661
:104DF0000000000030313233343536373839414223
:104E0000434445460000000000F058F90544761C74
:104E1000307800287FF4ECAD19B02846BDE8F08F5B
:104E2000620700D4062709F1070222F0070CFCE80C
:104E30000223E14603F000485FEA080C02D00FF2BB
:104E4000702C0DE05FEA045C02D50FF2682C07E0DD
:104E50005FEAC47C02D00FF2602C01E0AFF2700C6C
:104E60004FF0FF3823F00043CDF850C065280CD038
:104E700006DC452809D046281DD047283DD13DE015
:104E8000662818D067287ED138E00021112F01DB79
:104E9000112000E0781CCDE9000106A90EA8FFF75B
:104EA000EDFCDDE90F010E9A03910021009207F15C
:104EB000010A04914DE04FF000400097CDE9011048
:104EC00006A90EA8FFF7DAFCDDE90F0203920E9B9C
:104ED00011990022DDF80CA00093049211B9791CFD
:104EE00000EB010AB7EB0A0004D4C0F1FF3007F170
:104EF000010A0490AAEB0700019044E0012F00DAB8
:104F000001270021112F01DD112000E03846CDE9F5
:104F1000000106A90EA8FFF7B1FCDDE90F010E9A0A
:104F20000391002104910092BA4621070CD4039901
:104F3000514500DA8A46BAF1010F05DD009AAAF15F
:104F40000101515C302908D0B84202DA10F1040F97
:104F500006DA0121CDE9011015E0AAF10101E9E726
:104F6000002805DC049901440491AAEB000102E049
:104F7000411C514500DD8A460499401A401C0190AD
:104F80004FF000400290200704D40198504501DB07
:104F9000CDF8048000208DF84F0002980DF14F07E6
:104FA000B0F1004F25D02B200E9002984FF0020850
:104FB00000280CDA404202902D200E9007E00A21D2
:104FC0000298FBF7C8F93031029007F8011DB8F1DB
:104FD0000001A8F10108F2DC02980028EFD1791E47
:104FE0000E980870307800F0200040F0450007F877
:104FF000020D12A8C01B00F107081498007800B138
:10500000012000EB0A01019801EBE0710598414491
:10501000401A401E0590E00306D45B462146179ACD
:10502000059800F05DF805441498007818B15A46C8
:10503000179990476D1CE00324D55B462146179ACB
:10504000059800F04DF805441CE00498002807DBA3
:10505000DDE90301884203DD0098405C179901E017
:10506000179930205A469047049805F10105401CD5
:1050700004900198401E019004D12E205A461799A1
:1050800090476D1CBAF10001AAF1010ADDDC05E0D0
:1050900017F8010B5A46179990476D1CB8F100019B
:1050A000A8F10108F4DC5B462146179A0598ABE6A7
:1050B0002D0000002B000000200000002DE9F04131
:1050C000044600251E461746880404D405E03946E8
:1050D0002020B0476D1C641EF9D52846BDE8F0813C
:1050E0002DE9F041044600251E469046C80301D52F
:1050F000302700E02027880404D505E041463846E3
:10510000B0476D1C641EF9D52846BDE8F08100004B
:1051100013B5044801224FF6FF736946FEF7CCFC35
:1051200000981CBD840000242DED048BFCF778FA58
:10513000FEF730FFFEF772FDFEF72AFDFEF7AEFD2B
:105140001D4D4FF47A771D4E1D4C9FED1E8B9FED2C
:105150001F9B2048FCF79EF81E48FBF735FF00EE2A
:10516000100A10212846B8EE400B84ED000BFCF726
:1051700035FA012819D0012230464021FCF735FAD2
:1051800015A000BFFFF75AFB94ED000B16A020EE10
:10519000080B20EE090B84ED000B53EC102BFFF7EE
:1051A0004DFB3846FCF700F9D3E70022304640219A
:1051B000FCF71BFA16A0E5E70000025800040258AD
:1051C00000000024000000000000F03E66666666F5
:1051D00066660A4020000024476173206C65616B9D
:1051E000616765210D0A000054686520637572725D
:1051F000656E74204761732041442076616C75654B
:10520000203D2025342E326656200D0A0000000075
:10521000476173206E6F74206C65616B61676521F7
:105220000D0A000000000000010203040102030453
:1052300006070809010002000400060008000A0031
:105240000C0010002000400080000001010101035B
:105250000701000008040204080101017C52000853
:1052600000000024200000005C4800089C52000858
:1052700020000024F80400006C4800080000000032
:10528000000000000090D0030090D0030100000057
:0C52900010000000000000000000000002
:040000050800029954
:00000001FF
